:100000000C9434000C943E000C943E000C943E0082
:100010000C943E000C943E000C943E000C943E0068
:100020000C943E000C943E000C943E000C943E0058
:100030000C943E000C943E000C943E000C943E0048
:100040000C943E000C943E000C943E000C943E0038
:100050000C943E000C943E000C943E000C943E0028
:100060000C943E000C943E0011241FBECFEFD8E04C
:10007000DEBFCDBF0E9440000C9480000C940000B5
:1000800084B1806384B985B1806185B985B18F7D84
:1000900085B92FEF87EA91E6215080409040E1F743
:1000A00000C0000085B18F7E85B985B18F7D85B98F
:1000B0002FEF87EA91E6215080409040E1F700C0A1
:1000C000000085B1806285B985B18F7E85B92FEF3B
:1000D00087EA91E6215080409040E1F700C000009F
:1000E00085B18F7E85B985B18F7D85B92FEF87EA80
:1000F00091E6215080409040E1F700C00000C3CF5E
:04010000F894FFCFA1
:00000001FF
