S0190000554152545F44726976657220636F6465732E73726563D6
S11300000C9434000C9449000C9449000C9449005D
S11300100C9449000C9449000C9449000C94490038
S11300200C9449000C9449000C9449000C94490028
S11300300C9449000C9449000C9449000C94490018
S11300400C9449000C9449000C9449000C94490008
S11300500C9449000C9449000C9449000C944900F8
S11300600C9449000C94490011241FBECFEFD8E032
S1130070DEBFCDBF11E0A0E0B1E0E8EAF1E002C0EC
S113008005900D92AE31B107D9F70E9458000C9437
S1130090D2000C94000084B18C6284B984B18F7E48
S11300A084B98CB581658CBD8CB5817F8CBD089578
S11300B00E944B000E94750085B18B7F85B980ED4D
S11300C08EBD0DB407FEFDCF8EB51EBC0DB407FE6C
S11300D0FDCFCEB585B1846085B980E091E00E9402
S11300E088008C2F0E949500E7CF1092C50087E608
S11300F08093C40088E08093C10086E08093C200AE
S113010008959091C00095FFFCCF8093C600089598
S1130110CF93DF93EC0103C021960E948100888174
S11301208111FACFDF91CF910895CF93DF93CDB7AB
S1130130DEB766970FB6F894DEBF0FBECDBF91E170
S1130140EDE0F1E0DE01119601900D929A95E1F750
S1130150982F92959F70E1E0F0E0EC0FFD1FE90FFE
S1130160F11D90819A8B8F70E1E0F0E0EC0FFD1FA0
S1130170E80FF11D80818B8B8DE08C8B8AE08D8B59
S11301801E8A8AE091E00E948800CE0142960E9475
S1130190880066960FB6F894DEBF0FBECDBFDF9120
S10B01A0CF910895F894FFCFFC
S11301A8436869702049443A20003078003031327D
S11101B8333435363738394142434445460026
S9030000FC
