:100000000C9434000C943E000C943E000C943E0082
:100010000C943E000C943E000C943E000C943E0068
:100020000C943E000C943E000C943E000C943E0058
:100030000C943E000C943E000C943E000C943E0048
:100040000C943E000C943E000C943E000C943E0038
:100050000C943E000C943E000C943E000C943E0028
:100060000C943E000C943E0011241FBECFEFD8E04C
:10007000DEBFCDBF0E946E000C9481000C94000086
:1000800084B1806384B9089520E030E008C0EFE9CE
:10009000FFE03197F1F700C000002F5F3F4F2817B6
:1000A0003907A8F3089525B1206125B925B12F7D21
:1000B00025B90E944400089525B1206225B925B1D3
:1000C0002F7E25B90E944400089525B12F7E25B9C1
:1000D00025B12F7D25B90E94440008950E9440005B
:1000E00080ED97E00E94530080ED97E00E9465004C
:1000F00080ED97E00E945C0080ED97E00E94650033
:06010000EFCFF894FFCFE1
:00000001FF
