:100000000C9434000C943E000C943E000C943E0082
:100010000C943E000C943E000C943E000C943E0068
:100020000C943E000C943E000C943E000C943E0058
:100030000C943E000C943E000C943E000C943E0048
:100040000C943E000C943E000C943E000C943E0038
:100050000C943E000C943E000C943E000C943E0028
:100060000C943E000C943E0011241FBECFEFD8E04C
:10007000DEBFCDBF0E944F000C946A000C940000BC
:1000800021E030E007C0A89BFECF85B3816085BB2F
:100090002F5F3F4F213D83E03807ACF3089516BC36
:1000A00084B58E7F84BD84B58D7F84BD85B5836026
:1000B00085BD85B58B7F85BD84B1806184B985B1EF
:1000C000806185B90E94400085B18F7E85B90E940C
:0800D0004000F5CFF894FFCFCA
:00000001FF
