S01300004C45445F6D6F64756C61722E73726563E9
S11300000C9434000C943E000C943E000C943E007E
S11300100C943E000C943E000C943E000C943E0064
S11300200C943E000C943E000C943E000C943E0054
S11300300C943E000C943E000C943E000C943E0044
S11300400C943E000C943E000C943E000C943E0034
S11300500C943E000C943E000C943E000C943E0024
S11300600C943E000C943E0011241FBECFEFD8E048
S1130070DEBFCDBF0E945A000C9469000C940000AE
S113008084B1806284B9089585B1806285B9089588
S113009085B18F7D85B9089507C08FE99FE00197E9
S11300A0F1F700C00000C9019C0121503109892BDE
S11300B0A1F708950E9440000E94440080ED97E05B
S11300C00E944C000E94480080ED97E00E944C0082
S10900D0F3CFF894FFCF0A
S9030000FC
