:100000000C9434000C9449000C9449000C94490061
:100010000C9449000C9449000C9449000C9449003C
:100020000C9449000C9449000C9449000C9449002C
:100030000C9449000C9449000C9449000C9449001C
:100040000C9449000C9449000C9449000C9449000C
:100050000C9449000C9449000C9449000C944900FC
:100060000C9449000C94490011241FBECFEFD8E036
:10007000DEBFCDBF11E0A0E0B1E0E0E0F1E002C002
:1000800005900D92AC30B107D9F70E946B000C942B
:100090007E000C9400001092C50087E68093C40097
:1000A00088E08093C10086E08093C200089590911B
:1000B000C00095FFFCCF8093C6000895CF93DF93D7
:1000C000EC0103C00E945700219688818111FACF6C
:1000D000DF91CF9108950E944B0080E091E00E9453
:1000E0005E008AE00E9457002FEF83ED90E32150DD
:1000F00080409040E1F700C00000EFCFF894FFCFC0
:0C01000048454C4C4F20574F524C4400D7
:00000001FF
