:100000000C9434000C943E000C943E000C943E0082
:100010000C943E000C943E000C943E000C943E0068
:100020000C943E000C943E000C943E000C943E0058
:100030000C943E000C943E000C943E000C943E0048
:100040000C943E000C943E000C943E000C943E0038
:100050000C943E000C943E000C943E000C943E0028
:100060000C943E000C943E0011241FBECFEFD8E04C
:10007000DEBFCDBF0E944E000C946B000C940000BC
:1000800021E030E007C0A99BFECF85B3826085BB2D
:100090002F5F3F4F2E333105B4F3089516BC84B55E
:1000A0008E7F84BD84B5826084BD88EC87BD85B5B4
:1000B000856085BD85B58D7F85BD84B1806184B93E
:1000C00085B1806185B90E94400085B18F7E85B978
:0A00D0000E944000F5CFF894FFCF26
:00000001FF
