S018000050756C6C5F75705F7265736973746F722E7372656351
S11300000C9434000C943E000C943E000C943E007E
S11300100C943E000C943E000C943E000C943E0064
S11300200C943E000C943E000C943E000C943E0054
S11300300C943E000C943E000C943E000C943E0044
S11300400C943E000C943E000C943E000C943E0034
S11300500C943E000C943E000C943E000C943E0024
S11300600C943E000C943E0011241FBECFEFD8E048
S1130070DEBFCDBF0E9440000C9450000C940000E1
S113008084B1886084B98AB18D7F8AB9499B04C0E0
S113009085B1877F85B9FACF85B1886085B9F6CFF8
S10700A0F894FFCFFE
S9030000FC
