:100000000C9434000C943E000C943E000C943E0082
:100010000C943E000C943E000C943E000C943E0068
:100020000C943E000C943E000C943E000C943E0058
:100030000C943E000C943E000C943E000C943E0048
:100040000C943E000C943E000C943E000C943E0038
:100050000C943E000C943E000C943E000C943E0028
:100060000C943E000C943E0011241FBECFEFD8E04C
:10007000DEBFCDBF0E9440000C9456000C940000DF
:1000800016BC84B5836084BD88EC87BD85B583606C
:1000900085BD85B58B7F85BD84B5806884BD84B5FD
:1000A0008F7B84BD8AB180648AB9FFCFF894FFCF7B
:00000001FF
