S01000004558545F494E54312E73726563A8
S11300000C9434000C9446000C9448000C94460064
S11300100C9446000C9446000C9446000C94460044
S11300200C9446000C9446000C9446000C94460034
S11300300C9446000C9446000C9446000C94460024
S11300400C9446000C9446000C9446000C94460014
S11300500C9446000C9446000C9446000C94460004
S11300600C9446000C94460011241FBECFEFD8E038
S1130070DEBFCDBF21E0A0E0B1E001C01D92A13000
S1130080B207E1F70E9457000C9497000C9400000B
S11300901F920F920FB60F9211248F9381E08093D9
S11300A000018F910F900FBE0F901F90189584B18F
S11300B0806184B984B1806284B98AB1877F8AB946
S11300C08DB382608DBBE9E6F0E080818860808337
S11300D0789485B1806185B92FEF83ED90E3215049
S11300E080409040E1F700C0000085B18F7E85B963
S11300F02FEF83ED90E3215080409040E1F700C062
S1130100000080910001813021F785B1806285B9BA
S11301102FEF83E294EF215080409040E1F700C03C
S1130120000085B18F7D85B910920001D2CFF8947B
S1050130FFCFFB
S9030000FC
