S01A000054696D6572305F4E6F726D616C206D6F64652E737265634C
S11300000C9434000C943E000C943E000C943E007E
S11300100C943E000C943E000C943E000C943E0064
S11300200C943E000C943E000C943E000C943E0054
S11300300C943E000C943E000C943E000C943E0044
S11300400C943E000C943E000C943E000C943E0034
S11300500C943E000C943E000C943E000C943E0024
S11300600C943E000C943E0011241FBECFEFD8E048
S1130070DEBFCDBF0E9455000C9473000C940000A9
S113008041E050E060E070E009C0A89BFECF85B37A
S1130090816085BB4F5F5F4F6F4F7F4F443284EF6A
S11300A05807610571058CF3089516BC84B58E7FDD
S11300B084BD84B58D7F84BD85B5816085BD85B5DE
S11300C08D7F85BD85B58B7F85BD84B1806184B905
S11300D085B1806185B90E94400085B18F7E85B964
S10D00E00E944000F5CFF894FFCF12
S9030000FC
